:020000040800F2
:1000000078090020F901000811200008F119000802
:10001000751B0008B9150008FB320008000000003D
:100020000000000000000000000000004D24000857
:100030005D1600080000000099200008F525000862
:10004000130200081302000813020008130200083C
:10005000130200081302000813020008130200082C
:10006000130200081302000813020008130200081C
:10007000130200081302000813020008130200080C
:1000800013020008130200081302000813020008FC
:1000900013020008130200081302000813020008EC
:1000A00013020008130200081302000813020008DC
:1000B000592600082D270008130200081302000823
:1000C00013020008130200081302000813020008BC
:1000D000130200082530000813020008AD300008A4
:1000E000130200081302000813020008130200089C
:1000F000130200081302000813020008130200088C
:10010000130200081302000813020008130200087B
:10011000130200081302000813020008130200086B
:10012000130200081302000813020008130200085B
:1001300000F002F800F050F80AA090E8000C8244A9
:100140008344AAF10107DA4501D100F045F8AFF286
:10015000090EBAE80F0013F0010F18BFFB1A43F0A5
:1001600001031847A4410000C4410000103A24BF15
:1001700078C878C1FAD8520724BF30C830C144BF0C
:1001800004680C607047000000230024002500264E
:10019000103A28BF78C1FBD8520728BF30C148BFEA
:1001A0000B607047662904F06280642900F0528079
:1001B000002070471FB500F0E1FB04000020002183
:1001C00003F0E2FA401C60600020002103F0C6FA50
:1001D000E0601FBD10B510BD00F034FD1146FFF703
:1001E000E9FF03F0C3F900F060FD03B4FFF7F2FF8D
:1001F00003BC03F062F90000094880470948004742
:10020000FEE7FEE7FEE7FEE7FEE7FEE7FEE7FEE7C6
:10021000FEE7FEE704480549054A064B7047000023
:10022000F925000831010008780300207809002032
:100230007805002078050020704700000FB40449BD
:1002400010B503AA029800F043FB10BC5DF814FB44
:10025000C00000202DE9F0410646002410687529F1
:10026000314616A510D0AFF30080002802DA4042D4
:1002700013A507E031688A0701D512A502E04907F6
:1002800004D511A5012401E0AFF3008000210A226A
:1002900006F1240709E0B0FBF2FCB0FBF2F302FB2D
:1002A0001C00303078541846491C0028F3D12346EE
:1002B0002A463046BDE8F04100F0A4B80000000036
:1002C0002D0000002B000000200000002DE9F04769
:1002D0004FF0000A89460446C0F820A02046E16895
:1002E0008847002876D0252806D0D4E901219047F8
:1002F000206A401C2062F1E7E1682046002588471B
:10030000C4F81CA006460027C4F818A02A2E09D05D
:10031000304603F0CBF838B304EB8708303EC8F81A
:10032000186019E059F8041B204604EB870291611C
:10033000E1688847012F064618D1E069002820DAD5
:1003400025F020051DE0D8F8180000EB800006EB32
:1003500040003038C8F818002046E1688847064653
:1003600003F0A4F80028EED1012F0AD02E2E08D1D8
:100370002046E16888477F1C0646022F45F020058D
:10038000C4DBA069002803DA404245F00105A06102
:10039000E80701D025F01005B6B1A6F141001928F3
:1003A00002D8203645F400654A463146204625608D
:1003B0004D46FFF7F7FE58B1012806D0ED1D25F098
:1003C000070000F1080989E704E005F1040985E761
:1003D00030468AE7206ABDE8F08770B5064600F02F
:1003E0000DF80468054630460A22002100F082FA22
:1003F0002C6070BD70477047704770470048704769
:10040000180300202DE9F0470D4699469246044610
:1004100000F124080168880604D5E06921F0100184
:10042000216000E00120A84201DD471B00E0002719
:10043000A1697A1902EB0900081AA0612078C006A8
:1004400002D42046AFF30080002608E0D4E9012161
:100450001AF806009047206A401C761C20624E4520
:10046000F4DB2078C0060AD52046AFF3008006E012
:10047000D4E9012130209047206A401C2062381EB8
:10048000A7F10107F4DC07E0D4E9012118F8050021
:100490009047206A401C2062281EA5F10105F3DC6C
:1004A0002046AFF300802078000602D50220BDE888
:1004B000F0870120FBE770472DE9FF4F0C461E46F1
:1004C0004FF0FF378BB0D2E90001DDF860800A9071
:1004D0008A46C1F30A5505B93D46002108464FF04A
:1004E0000000BAF1000F00F4400005DA00EB8000D4
:1004F0004FF4400101EA50004FEA9059B9F1010F61
:1005000000DDB9460A9850EA4A000ED044F6105071
:10051000A5F2FF3545432F14B8F1000F1ED07542E8
:10052000291E1EDDC9F100021CE0B8F1010F4FF0D9
:10053000000001D0302103E0F24305E02154401CCB
:10054000B042FBDB30460022002121540B99C1F858
:100550000880C1E900200FB0BDE8F08FBD1B6D1C05
:10056000DEE74A4600DA694206A800F0F9FA06AB6F
:1005700093E8070003AB83E8070050460A9900F0B0
:10058000DDFB8DE80700A0F500501F3800900398B0
:10059000002D09DD42F21F014A46084403A90390D9
:1005A000684600F03CFE08E0A0F500504A461F38BF
:1005B00003A90390684600F046FE8DE8070000049A
:1005C000000C03D04FF0FF30410800E01046B8F1B6
:1005D000000F03D00022009215461EE0751E05D4C0
:1005E00000F0D0F9303262556D1EF9D5B3460122C4
:1005F000084302D000227F1C04E02078302801D17B
:1006000000227F1E002A099786D01DE0112D07DAEF
:1006100000F0B8F9303262556D1C50EA0102F5D194
:10062000084302D00098C8B10EE00021681E05E022
:10063000235C625C63542254401E491C8142F7DBF8
:10064000AB46A81B401E0990002004F80B000B9835
:10065000099AC0F80880C0E9002B7CE711264FF00A
:10066000000859E72DE9F04F88460446D21D22F0D4
:10067000070191B0D1E90001CDE90A0102F002FFC2
:1006800002460B98C00F01D02D2007E0206881079B
:1006900001D52B2002E0202101EAC000032A0990A5
:1006A00001D0072A05DB03464146204600F0C8F981
:1006B0000BE12078800601D5E06900E00620B8F162
:1006C000650F814606D0B8F1660F18D0B8F1670FF4
:1006D00070D131E00020B9F1110F009001DB11233E
:1006E00001E009F101030AAA01A90CA8FFF7E4FE41
:1006F000DDE90C70002609F10105834647E0012081
:100700004B4600904FF000470AAA01A90CA8FFF73A
:10071000D3FEDDE90DB00C995D46002610B909F154
:1007200001000D18B9EB050003D4C0F1FF3609F143
:100730000105A5EB09002BE0B9F1010F01DA4FF03B
:1007400001090020B9F1110F0090484601DD112385
:1007500000E003460AAA01A90CA8FFF7ADFEDDE9F7
:100760000C704D4600268346207800070AD4AB451E
:1007700000DA5D4601A8012D04DD411911F8011CC4
:10078000302907D04F4502DA17F1040F04DA0120AF
:1007900082460FE06D1EEEE7002F02DCED1B3E44AB
:1007A00003E0781CA84200DD7D1CB81B00F1010AA3
:1007B0004FF000472078000703D4AA4501DB4FF033
:1007C000FF3A0021B7F1004F0DF143088DF84310B7
:1007D00024D002202B23002F01DA7F422D230A216F
:1007E000021EA0F1010000DC5FB197FBF1FC97FB5A
:1007F000F1F201FB1C7C17460CF1300C08F801CD1E
:10080000EEE7A8F1010003702188090501D5452113
:1008100000E06521A0F1010800F8011C09980FA96A
:10082000A1EB0807FF1D00B10120411901EBEA709F
:10083000A1693844081A401EA0612078C00602D47D
:100840002046AFF30080099828B1D4E901219047F0
:10085000206A401C20622078C00622D52046AFF3D3
:1008600000801EE0002E04DBB34502DD01A8805DA0
:1008700000E03020D4E901219047206A401C20622A
:10088000761CAAF101005FEA000A0AD100F076F8AE
:10089000C0680168405CD4E901219047206A401C8F
:1008A0002062281EA5F10105DCDC07E0D4E9012166
:1008B00018F8010B9047206A401C2062381EA7F1EF
:1008C0000107F3DC2046AFF30080032011B043E6BC
:1008D000074B70B50D467B4400F09FF80446284650
:1008E00000F0ACF910B14FF0FF3070BD204670BD84
:1008F000772C00002DE9F04791460F4680460446CC
:10090000002614F8015B2DB100F030F80068405D5E
:10091000C007F6D12B2D02D02D2D18D0641E4A46CB
:100920003946204600F0CCF827B13968A14201D100
:10093000C7F800804FF0020471050BD54042002833
:1009400003DDFFF75BFD0460A007BDE8F08746F418
:100950008066E4E70028F8DAFFF750FD04606FF0E6
:100960000040F2E7004870471803002010B500F07F
:1009700005F8001D10BD00BF112E00000048704793
:100980003803002030B5B0F10A024FEA900E71F141
:1009900000034EEA817EB0EB0E0061EB91014FEA5D
:1009A000101E4EEA017E10EB0E0041EB11114FEAD2
:1009B000102E4EEA016E10EB0E0041EB11214FEAB2
:1009C000104E4EEA014E10EB0E0041EB1141401863
:1009D00041F100014FEAD00040EA41704FEAD101F5
:1009E00010EB80054FEA810444EA907444EB010463
:1009F0006D1944EB0404521BA3414FF0000348BFA0
:100A00000A3200D530BD401C41F1000130BD00006C
:100A100001694A1C02610878704700B58FB0CDE9C2
:100A200001310021059105497944CDE903101146B2
:100A30006846FFF74BFC0FB000BD0000E5FFFFFF6D
:100A40002DE9F0411F46044603260168072A01F4F8
:100A5000006004DB08B116A505E016A503E008B1A7
:100A600015A500E015A521F010002060A069C01EAA
:100A7000A0610FB1401EA0612046AFF300804FB1CE
:100A8000D4E9012138469047206A401C2062C01CEE
:100A9000206206E0206AFAE7D4E9012115F8010B8B
:100AA0009047761EF8D22046AFF30080BDE8F08173
:100AB0004E414E006E616E00494E4600696E660002
:100AC0002DE9F05F824615468B4600270AF10104A6
:100AD000B9460078302801D09DB113E014F8010B1D
:100AE0000127782803D0582801D045B10AE00DB17C
:100AF000102D07D1002714F8010B102502E008255E
:100B000000E00A250026B0460EE005FB080005FBC4
:100B100006F101271FFA80F801EB1046B6F5803F79
:100B200000D3B94614F8010B294600F0B0F80028AC
:100B3000EBDABBF1000F05D00FB1641E00E05446A4
:100B4000CBF80040B9F1000F06D0FFF757FC0221A7
:100B50000160C81EBDE8F09F48EA0640FAE70000C1
:100B60002DE9F047814616468AB0334878440DC8CF
:100B70008DE80D0030487844801C03AC0DC884E833
:100B80000D0041F69B300844372190FBF1F290FBB9
:100B9000F1F5A5F1800501FB12041B3C02D564426E
:100BA000012000E00020DFF890A080460027FA44F2
:100BB000AAF1BE0A0DE0E00709D03246684607EB0D
:100BC00047010AEB810100F03EFB8DE8070064104D
:100BD0007F1C002CEFD1184F7F44AC3F18E0E80792
:100BE00014D007EB04100DF1180A90E80E008AE803
:100BF0000E00C068F04201D198190890324606A94B
:100C000003A800F020FB03AB83E807006D10641C11
:100C1000002DE4D132466946B8F1000F03A802D096
:100C200000F0FDFA01E000F00EFBC9E90001C9F88F
:100C300008200AB0BDE8F08780370000007B00F094
:100C4000800070477546FFF78DFEAE460500694689
:100C5000534620F00700854618B020B5FFF7DAFAB2
:100C6000BDE820404FF000064FF000074FF00008AD
:100C70004FF0000B21F00701AC46ACE8C009ACE82E
:100C8000C009ACE8C009ACE8C0098D4670473A28F5
:100C900000D2303820F02002412A01D3A2F13700DF
:100CA000884201D34FF0FF30704710B50446AFF3D0
:100CB00000802046BDE81040FFF797BA4FF0013C96
:100CC00050F8042B51F8043B9A4221D1A2EB0C03BB
:100CD000934313EACC1317D150F8042B51F8043B7B
:100CE0009A4215D1A2EB0C03934313EACC130BD118
:100CF00050F8042B51F8043B9A4209D1A2EB0C03A3
:100D0000934313EACC13DBD04FF00000704700BFD1
:100D1000D01A01BAB1FA81F101F0180122FA01F0FA
:100D2000CB40C1F12001DBB2C0B2C01A2CFA01F3F2
:100D3000D11A914311EAC311E6D170475FEA400C22
:100D400008BF91F0000F4FEA8C234FEAC12243EA1B
:100D500051514FEA1C5018BF00F5F0404FEA3000E7
:100D600018BF41F000415FEA6C5C00F02980BCF1E3
:100D7000FF3F08BF40F080407047130C06BF1204CD
:100D80004FF0100C4FF0000C130E04BF12020CF1C8
:100D9000080C130F04BF12010CF1040C930F04BFD5
:100DA00092000CF1020CD30F04BF52000CF1010CA5
:100DB00011464FF00002A0F11F00A0EB0C0070479D
:100DC00011F0004F08BF704731F000413FF4D5AF3C
:100DD0000B0C06BF09044FF0100C4FF0000C0B0E6B
:100DE00004BF09020CF1080C0B0F04BF09010CF140
:100DF000040C8B0F04BF89000CF1020CCB0F04BF55
:100E000049000CF1010CCCF12003A0EB0C0022FAFC
:100E100003F302FA0CF241EA030100F1010070470A
:100E200020F07F4C80EA030023F07F47ACEB070300
:100E300003F57C5300F0004003F1FF032DE98049E6
:100E40004FEA154B09B44FEA144325EA0B4E24EA46
:100E500003480FF2042606EB132749083E785FEAA1
:100E6000320203FB0667C7F5000707FB06F64FEAE9
:100E700054374FEAD64606F1020607FB066CCCF162
:100E8000005C4FEA1C472CEA074C07FB06F40CFBFE
:100E900006F504EB15464FEA961634BF00204FF0D6
:100EA00000404FEAD13706FB07FC4FEA1C4C0CFB15
:100EB0000BF7D21B03FB0CF761EB07010CFB0EF7E2
:100EC000B0EB074072EB17420CFB08F734BFA2EB04
:100ED0000742B2EB074261EB17414FEA0C444FEA7D
:100EE000910706FB07FC4FEA1C4C0CFB0BF7B0EB21
:100EF000C74072EB573203FB0CF734BFA2EBC7427B
:100F0000B2EBC74261EB57310CFB0EF7B0EBC700F9
:100F100072EB57720CFB08F734BFA2EBC702B2EBBF
:100F2000C70261EB5771039F4FEA816141EA921159
:100F300004EBCC044FEAD1374FEA826206FB07FC90
:100F400042EA90124FEA80604FEA1C4C0CFB0BF710
:100F5000D21B03FB0CF761EB07010CFB0EF7B0EBA8
:100F6000074072EB17420CFB08F734BFA2EB0742B5
:100F7000B2EB074261EB17414FEA8C554FEA9107FC
:100F800004EB9C2406FB07FC4FEA1C4C0CFB0BF704
:100F9000B0EBC74072EB573203FB0CF734BFA2EB48
:100FA000C742B2EBC74261EB57310CFB0EF7B0EB17
:100FB000C70072EB57720CFB08F734BFA2EBC702F5
:100FC000B2EBC70261EB577115EB4C254FEA81611B
:100FD00041EA92114FEA82624FEAD13742EA901217
:100FE00006FB07FC44F100044FEA80604FEA1C4C0A
:100FF0000CFB0BF7D21B03FB0CF761EB07010CFB9F
:101000000EF7B0EB074072EB17420CFB08F734BF4A
:10101000A2EB0742B2EB074261EB174115EB1C153F
:101020004FEA813141EA92414FEA823242EA9042EC
:101030004FEA80304FEA0C7644F1000448EA03435B
:101040004EEA0B484FF0000EB2EB080C71EB0307B1
:1010500024BF624639464EEB0E0E4FF0000B0018CF
:10106000524149414BEB0B0BB2EB080C71EB030700
:101070007BF1000B24BF624639464EEB0E0E4FF05B
:10108000000B0018524149414BEB0B0BB2EB080C23
:1010900071EB03077BF1000B24BF624639464EEB30
:1010A0000E0E51EA020718BF46F0010616EB0E7647
:1010B00055F1000254F1000103D5BDE88901BDE8F6
:1010C0000088BDE88901BDE80048B619524141EBEE
:1010D0000101A3F10103704780807F7E7D7C7B7AD4
:1010E0007978777676757473727171706F6E6E6DD4
:1010F0006C6C6B6A6A69686867666665646463637A
:1011000062616160605F5F5E5E5D5D5C5C5B5B5AFF
:101110005A5959585857575656555555545453536C
:1011200052525251515050504F4F4F4E4E4D4D4DC7
:101130004C4C4C4B4B4B4A4A4A4949494848484712
:101140004747474646464545454444444443434350
:101150004342424242414141002B26D4770021D0F4
:101160001CB54FEA370703B44FF010004FF01001E1
:101170004FF000000FBCBDE810400BF1010BBBF1BC
:10118000010F08BF5FEA170722BF12F1010211F138
:1011900001014FF0004143F1000300F0004043EA39
:1011A00000007047F9D35708DAE746EA064613F11C
:1011B000400F4FEA16461FDD13F1200FDFBF164325
:1011C0000A46002120335B42C8D0C3F1200746EA1B
:1011D000064602FA07F74FEA164646EA0706C3F143
:1011E000200722FA03F201FA07F721FA03F14FF080
:1011F000000342EA0702B1E746EA020646EA06466B
:101200004FEA164646EA0106BCBF46EA0646360CD9
:101210004FF000034FF000024FF000019EE72DE970
:10122000C048934630B491E8380007C831EA400C12
:1012300048BF34EA430C03D5FFF7F2FDFFF78CFFFC
:10124000F0BCBDE800882DE9C048934630B491E871
:10125000380007C810F0804F08BF13F0804F03D14B
:1012600000F005F8FFF778FFF0BCBDE8008820F03B
:101270007F4780EA030023F07F4C07EB0C03A3F5C4
:101280007C5300F00040A3F1FE0392F0000F00F049
:10129000B38095F0000F00F077802DE901494FEA07
:1012A00011404FEA144621EA004800FB06FC24EAFC
:1012B000064708FB06F607FB08F800FB07F718EBE4
:1012C00006484CEB164C4FEA124B18EB07484FEA16
:1012D00015464CEB174022EA0B4E0BFB06FC25EAA9
:1012E00006470EFB06F607FB0EFE0BFB07F71EEB91
:1012F000064E4CEB164C4FF000061EEB074E4CEB27
:10130000174B18EB0B0840F1000018EB0E0B58EBD5
:10131000000840F100008F1A4FF000013CBFC943A4
:10132000661B14BFB5EB040C00213CBFC943F61B80
:101330004FEA17444EEA8E0E27EA04454FEA1C474F
:1013400004FB07622CEA074C05FB07F70CFB05F6CC
:1013500004FB0CFC16EB074642EB174216EB0C465F
:1013600042EB1C421BEB060658EB0202414146EAE7
:101370009E0601D5BDE80189B619524141EB010134
:10138000A3F10103BDE801894FEA14454FEA114773
:1013900024EA054621EA074C05FB07F406FB07F79C
:1013A0000CFB06F105FB0CFC11EB074144EB174469
:1013B0004FEA124711EB0C4144EB1C4422EA074C64
:1013C00005FB07F206FB07F70CFB06F605FB0CFC1A
:1013D00016EB074642EB174216EB0C4642EB1C4558
:1013E0006A1854F1000148BF7047B619524141EBE9
:1013F0000101A3F10103704795F0000F37D04FEAC8
:1014000011424FEA144721EA024624EA074C02FB44
:1014100007F106FB07F70CFB06F402FB0CFC14EBD0
:10142000074441EB17414FEA154714EB0C4441EBDD
:101430001C4125EA074C02FB07F506FB07F70CFBEE
:1014400006F602FB0CFC16EB074645EB174516EBC0
:101450000C4645EB1C42121951F1000148BF704780
:10146000B619524141EB0101A3F1010370474FEA64
:1014700014454FEA114724EA054621EA074C05FBCB
:1014800007F106FB07F70CFB06F24FF0000605FB21
:101490000CFC12EB074241EB174112EB0C4251EBF3
:1014A0001C4148BF7047921841EB0101A3F10103B1
:1014B0007047002203E000230370401C521C8A4244
:1014C000F9DB70472DE9F047044689464DE0324884
:1014D0000068001B00280EDD3048006802F082FB27
:1014E000074600222E4B02F097F9054602F062F9FA
:1014F0002C49086011E028480068001B0DD52748DA
:10150000006802F06FFB07460022254B02F080FACC
:10151000054602F04FF92349086023480068A0EB14
:10152000090000280EDD2148006802F05BFB074639
:1015300000221B4B02F070F9054602F03BF91C49F2
:10154000086012E018480068B0EB09000DD5174894
:10155000006802F047FB05460022114B02F058FAE2
:10156000074602F027F9124908600B490968081B71
:1015700002F088F80228AADA0B490968A1EB0900F1
:1015800002F080F80228A2DA01200A4908600A2045
:1015900001F0B8FFBDE8F087700000205000002087
:1015A0000000044058000020740000205400002077
:1015B0005C000020B401224200BFFEE71B48006827
:1015C000012832D11A48007808281FD118484078DD
:1015D0001849086016488078174908601448C07890
:1015E000164908601248007915490860104840798A
:1015F000144908600E488079134908600C48C07986
:10160000124908600A48007A1149086008480078C1
:10161000022807D1064840780E49086004488078BF
:101620000D4908600020014908607047240000202F
:101630004402002004000020080000200C000020CC
:101640001000002014000020180000201C000020C2
:1016500020000020700000207400002070472DE959
:10166000F041024600250026002000230024002728
:1016700091F803C00CF00F0591F803C00CF0100CAA
:10168000BCF1000F03D091F802C04CEA050591F8B7
:1016900000C0BCF1000F31D0146800202BE04FF0E7
:1016A000010C0CFA00F3B1F800C00CEA03069E42EC
:1016B00020D183004FF00F0C0CFA03F7BC4305FA5E
:1016C00003FC4CEA040491F803C0BCF1280F06D1D6
:1016D0004FF0010C0CFA00FCC2F814C00AE091F8BB
:1016E00003C0BCF1480F05D14FF0010C0CFA00FC0F
:1016F000C2F810C0401C0828D1D31460B1F800C053
:10170000BCF1FF0F34DD546800202EE000F1080C1E
:101710004FF0010808FA0CF3B1F800C00CEA030618
:101720009E4221D183004FF00F0C0CFA03F7BC430B
:1017300005FA03FC4CEA040491F803C0BCF1280F3D
:1017400005D100F1080C08FA0CF8C2F8148091F8E1
:1017500003C0BCF1480F07D100F1080C4FF001089D
:1017600008FA0CF8C2F81080401C0828CED3546048
:10177000BDE8F0814161704770B51748008800F4FA
:101780000040002826D014480088C0F30D0513A09F
:10179000FEF754FD14211648FFF78BFE002411E0DC
:1017A0001448015D144801F0A4FD1248005D104981
:1017B000085500BF4021104801F0CEFC0128F9D1A6
:1017C000601C84B2AC42EBDB0CA0FEF737FD0020BE
:1017D0000149088070BD0000C40000200D0A535468
:1017E0004D33322067657420646174613A090000EA
:1017F000300200204D020020003801400D0A000098
:10180000F0B50446161B052796FBF7F500201CE0F3
:1018100040B9174E06EB00163460154E06EB001665
:10182000716011E0042808D1114E06EB00163260F9
:101830000F4E06EB0016736006E000FB05460C4FEA
:1018400007EB00173E6000BF401C0528E0DB5E1A76
:10185000052796FBF7F5012006E000FB0516044F6F
:1018600007EB00177E60401C0428F6DBF0BD00008B
:10187000CC01002070B506E0032001F069FF4FF4B1
:10188000FA7001F03FFE4F48006818B94E480068F2
:101890000028F1D000204D4908604FF4FA7001F0A3
:1018A00031FE01204A49C1F8B4014FF4FA7001F049
:1018B00029FE0020454908604FF4FA7001F022FE2D
:1018C00001204349C1F8B4014FF4FA7001F01AFE47
:1018D00000203E4908604FF4FA7001F013FE012029
:1018E0003B49C1F8B401002448E015E039480068DC
:1018F000012811D10A2001F005FE364800680128B0
:101900000AD100BF334800680128FBD001203249CA
:10191000086000202D4908602F4800680028E5D0A5
:10192000284800682D4901EB04110860264800682A
:101930002A4901EB04114860002027490860274824
:1019400000EB04104368254800EB041021460268B0
:1019500023A0FEF773FC00250DE000201B49086062
:10196000642001F0CFFD01201949C1F8B4016420C1
:1019700001F0C8FD6D1CA542EFDB641C092CB4DB33
:101980004FF4FA7001F0BEFD0020104908604FF4DA
:101990007A7001F0B7FD01200D49C1F8B4010024AF
:1019A0000CE00E4800EB041043680C4800EB0410F8
:1019B000214602680AA0FEF741FC641C092CF0DBFA
:1019C00070BD00007000002074000020B4012242AD
:1019D0000000224210012142900000203C01002022
:1019E0005025643A785F256409795F25640D0A0003
:1019F00000BFFEE708B50121042000F013FCF02031
:101A0000ADF8000028208DF8030069461148FFF763
:101A100026FE012010490860C82001F073FD002057
:101A20000E49C1F8B401FA2001F06CFD01200A4909
:101A300008604FF4967001F065FD00200749C1F879
:101A4000B4014FF4AF7001F05DFD01200249086060
:101A500008BD000000080140B401224200002242FB
:101A600010B52548006801280BD10A2001F04AFD75
:101A700021480068012804D100202049086020493D
:101A800008601D48001D006801280DD10A2001F0E2
:101A900039FD1948001D0068012805D100201749AB
:101AA00008600120164908601348083000680128C2
:101AB0000DD10A2001F026FD0F48083000680128EA
:101AC00005D100200D49086002200D4908600A4830
:101AD0000C30006801280DD10A2001F013FD0648E2
:101AE0000C300068012805D100200449086003205B
:101AF00001F02EFE10BD000010012142B40122426F
:101B00008800002008B50121102000F08BFB4FF465
:101B10000050ADF8000003208DF8020014208DF86D
:101B2000030069461048FFF79AFD01200F4908603D
:101B3000962001F0E7FC00200D49C1F8B401962081
:101B400001F0E0FC012009490860962001F0DAFC70
:101B500000200749C1F8B401962001F0D3FC012010
:101B60000249086008BD000000100140B401224293
:101B70000000224200BFFEE72DE9F04385B0BA48DD
:101B80000078302802D0B848007830B91421B6481F
:101B9000FFF78FFC05B0BDE8F083B34800784D280F
:101BA00076D1B148407858283FD1AF488078302866
:101BB00003DAAD488078392804DCAB4880788DF8AA
:101BC000100003E0A9A0FEF739FBE3E7A648C078C0
:101BD000302803DAA448C078392804DCA248C07849
:101BE0008DF8110003E0A1A0FEF728FBD2E79E4884
:101BF0000079302803DA9C480079392804DC9A48B7
:101C000000798DF8120003E098A0FEF717FBC1E7FA
:101C100004A8FEF7E2FB8146484602F05FF99949C5
:101C20000860494698A0FEF709FB8F48407959287B
:101C300040D18D488079302803DA8B488079392863
:101C400004DC894880798DF8100003E087A0FEF756
:101C5000F5FA9FE78448C079302803DA8248C079D2
:101C6000392804DC8048C0798DF8110003E07FA09A
:101C7000FEF7E4FA8EE77C48007A302803DA7A48E7
:101C8000007A392805DC7848007A8DF8120004E0E3
:101C90001DE076A0FEF7D2FA7CE704A8FEF79DFBD4
:101CA0000446204602F01AF97C49086021467CA0CF
:101CB000FEF7C4FA6C4800782C2808D16A4890F8DE
:101CC0000290C478224649467AA0FEF7B7FA6648E1
:101CD000007853287ED16448407830281FD1774857
:101CE000006877490860774800684860764800686F
:101CF000886076480068C8607448006801F072FF28
:101D000005460E467048006801F06CFF8DE86300E0
:101D10006C480268694801686DA0FEF78FFA524866
:101D20004078312822D165480068654908616548D6
:101D300001686348416164480168614881616348A2
:101D400001685F48C1616148006801F04BFF0546CA
:101D50000E465D48006801F045FF8DE86300594874
:101D600002685648016861A0FEF768FA3E4840786C
:101D7000322822D15148006851490862514801680F
:101D80004F484162504801684D4881624F480168A0
:101D90004B48C1624D48006801F024FF05460E46DD
:101DA0004948006801F01EFF8DE86300454802685D
:101DB0004248016854A0FEF741FA2B484078332886
:101DC00024D13E4800683E4908633E4801683C48CB
:101DD000416300E045E03C480168394881633B4885
:101DE00001683748C1633948006801F0FBFE0546C9
:101DF0000E463548006801F0F5FE8DE86300314875
:101E000002682E48016847A0FEF718FA1648407885
:101E1000342822D1294800682949086429480168E2
:101E2000274841642848016825488164274801689B
:101E30002348C1642548006801F0D4FE05460E46DB
:101E40002148006801F0CEFE8DE863001D4802685D
:101E50001A4801683AA0FEF7F1F914210248FFF789
:101E600028FB00BF96E6000030020020CAFDBEDD60
:101E7000B4AEB2BBBACFB9E6CDA3D6B9BDD3CAD53D
:101E8000000000005800002058D6E1B6E6BBFAD7A3
:101E9000AACFF22564B6C8BDC70000005C000020D0
:101EA00059D6E1B6E6BBFAD7AACFF22564B6C8BDCB
:101EB000C700000025640925640D0A007000002099
:101EC000EC0000207400002050000020540000208E
:101ED000566572746578303A2025642C256409258E
:101EE0002E31662C252E31660D0A0000566572745F
:101EF0006578313A2025642C256409252E31662C1D
:101F0000252E31660D0A0000566572746578323AE6
:101F10002025642C256409252E31662C252E31665A
:101F20000D0A0000566572746578333A2025642CDA
:101F3000256409252E31662C252E31660D0A0000F8
:101F4000566572746578343A2025642C2564092519
:101F50002E31662C252E31660D0A000010B586B094
:101F600004460121082000F05DF90121880400F0F9
:101F700049F918208DF817004FF48060ADF814006F
:101F800001208DF8160005A91F48FFF768FB042102
:101F90001D48FFF7EFFB04208DF817004002ADF855
:101FA000140001208DF8160005A91748FFF757FB0C
:101FB00001940020ADF810000C20ADF80E000020B8
:101FC000ADF80C00ADF80A00ADF8080001A90F4803
:101FD00001F01EF901210D4801F0B2F8012240F292
:101FE00025510A4801F0EFF827208DF80000012064
:101FF0008DF803008DF801008DF80200684600F0AE
:1020000009F806B010BD0000000C01400048004077
:102010007047000070B5002100230F22C47804B37C
:10202000154C246804F4E064C4F5E064210AC1F1AD
:102030000403CA40447804FA03F18478144021432D
:1020400009010E4C0678A155047804F01F050124FF
:10205000AC4005786D11AD0005F1E025C5F80041F3
:1020600009E0047804F01F050124AC40044D067813
:10207000761145F8264070BD0CED00E000E400E06C
:1020800080E100E002490143024A1160704700000C
:102090000000FA050CED00E0704700002DE9F04764
:1020A00004460D462946204602F061F820490860A2
:1020B000084601681F48006801F0C0FD1D4908601E
:1020C0001D4801681A48006802F05CF881461B4808
:1020D0000168484601F04EFF8046194901F01CFE98
:1020E0000646144801681748006801F043FF82461D
:1020F000134901F011FE80460D480168124800683E
:1021000001F038FF82460E4901F006FE8146414645
:1021100001F094FD0746314601F090FD0B4908603F
:10212000034800680449086008480068BDE8F08773
:10213000CC000020D4000020D80000204400002063
:102140000000C842400000203C000020D0000020D9
:102150002DE9F04704460D462946204602F007F8CF
:1021600020490860084601681F48006801F066FDC4
:102170001D4908601D4801681A48006802F002F80D
:1021800081461B480168484601F0F4FE8046194923
:1021900001F0C2FD0646144801681748006801F0C6
:1021A000E9FE8246134901F0B7FD80460D480168FB
:1021B0001248006801F0DEFE82460E4901F0ACFDD7
:1021C0008146414601F03AFD0746314601F036FDB1
:1021D0000B49086003480068044908600848006823
:1021E000BDE8F087DC000020E4000020E8000020CB
:1021F000440000200000C842400000203C000020B5
:10220000E000002029B1064AD2690243044BDA619A
:1022100004E0034AD2698243014BDA61704700004F
:102220000010024029B1064A92690243044B9A61A8
:1022300004E0034A92698243014B9A6170470000AF
:102240000010024030B500210022002400232D4D53
:102250006D6805F00C0121B1042905D0082923D1AE
:1022600005E0294D056022E0274D05601FE0254D62
:102270006D6805F47012234D6D6805F480340225F5
:1022800005EB92421CB9214D554305600BE01D4DF5
:102290006D6805F400351DB11C4D5543056002E025
:1022A000194D5543056002E0174D056000BF00BFA2
:1022B000144D6D6805F0F0010909154D6B5C05685A
:1022C000DD4045600F4D6D6805F4E061090A104D71
:1022D0006B5C4568DD4085600A4D6D6805F46051B2
:1022E000C90A0B4D6B5C4568DD40C560054D6D68E6
:1022F00005F44041890B074D6B5CC568B5FBF3F5F0
:10230000056130BD0010024000127A0000093D0056
:10231000A8000020B800002070B504460D4619E062
:1023200043490968081B01F0D9FD06464148016888
:10233000304601F083FC4049086040490968481B69
:1023400001F0CCFD06463E480168304601F076FCBF
:102350003C49086036490968081B01F093F90128D7
:10236000DEDC36490968481B01F08CF90128D7DC0E
:10237000642001F0C7F819E02D490968081B01F035
:10238000ADFD06462B480168304601F057FC2A494E
:1023900008602A490968481B01F0A0FD0646284844
:1023A0000168304601F04AFC264908602049096866
:1023B000081B01F067F90128DEDC20490968481B89
:1023C00001F060F90128D7DC642001F09BF819E0E6
:1023D00017490968081B01F081FD06461548016888
:1023E000304601F02BFC1449086014490968481B69
:1023F00001F074FD064612480168304601F01EFCEB
:10240000104908600A490968081B01F03BF90128D6
:10241000DEDC0A490968481B01F034F90128D7DCE1
:10242000642001F06FF801200749086070BD0000CA
:102430007000002050000020580000207400002090
:10244000540000205C000020B4012242704710B507
:1024500000F002F810BD00000CB5002001900090C3
:102460003348006840F480303149086000BF30488C
:10247000006800F4003000900198401C0190009822
:1024800018B90198B0F5A06FF1D12948006800F49F
:10249000003010B10120009001E000200090009871
:1024A000012843D12348006840F01000214908600A
:1024B0000846006820F0030008600846006840F005
:1024C000020008601A484068194948600846406898
:1024D00048600846406840F48060486008464068AC
:1024E00020F47C1048600846406840F4E8104860DA
:1024F0000846006840F08070086000BF0C48006823
:1025000000F000700028F9D00948406820F003006E
:10251000074948600846406840F00200486000BF34
:102520000348406800F00C000828F9D10CBD0000F9
:1025300000100240002002402DE9F04105460C4603
:102540001D480168284601F015FD07461B48016833
:10255000384601F00FFD064619480168304601F083
:102560006DFB1749086014480168204601F002FD20
:10257000074614480168384601F0FCFC064612483C
:102580000168304601F05AFB0F4908600C480068AA
:1025900001F084FC86B231464FF0804000F013FA1F
:1025A0000948006801F07AFC86B231464FF080405D
:1025B00000F00BFABDE8F08130000020340000206C
:1025C000500000203800002054000020042808D1CA
:1025D0004FF0E021096941F004014FF0E022116160
:1025E00007E04FF0E021096921F004014FF0E022FB
:1025F000116170477047000010B51348006840F043
:1026000001001149086008464068104908400E4919
:102610004860084600680E4908400B4908600846B3
:10262000006820F4802008600846406820F4FE001E
:1026300048604FF41F008860FFF709FF4FF000600B
:102640000449086010BD0000001002400000FFF8BF
:10265000FFFFF6FE08ED00E010B50121880700F04D
:10266000E2F801280BD10648006808B9012000E013
:102670000020034908600121880700F0C5F810BD5B
:102680009001214230B589B005460C460121042055
:10269000FFF7C8FD01210846FFF7B4FD0320ADF8A0
:1026A000200018208DF8230003208DF8220008A9AF
:1026B0001D48FEF7D4FFADF81850ADF814400020C7
:1026C000ADF81600ADF81A0005A94FF0804000F0F3
:1026D0007FF96020ADF804000020ADF80C00012067
:1026E000ADF806000020ADF80A0001A94FF08040C7
:1026F00000F0B4F800214FF0804000F0FBF801A991
:102700004FF0804000F000F900214FF0804000F0D1
:102710004DF90121880700F06BF80121880700F0CE
:1027200076F809B030BD00000008014010B5012165
:10273000114800F078F801281DD101210E4800F061
:1027400063F800F015FE0D4801680D480068FFF7BA
:10275000A5FC0C4908600C4801680C480068FFF7AC
:10276000F7FC0B49086000F049FE0948016805487C
:102770000068FFF7E1FE10BD000400405800002093
:1027800050000020480000205C0000205400002081
:102790004C0000207FB505460C4601210220FFF7C2
:1027A00031FDADF80850ADF804400020ADF806004A
:1027B000ADF80A0001A90D4800F00AF901221146FE
:1027C0000A4800F041F81D208DF8000001208DF826
:1027D00003008DF801008DF802006846FFF71AFC2F
:1027E0000121024800F013F87FBD00000004004002
:1027F00021B1028842F08002028004E002884FF694
:102800007F731A4002807047CA430282704721B129
:10281000028842F00102028004E002884FF6FE7353
:102820001A400280704730B5024600200023002481
:10283000158A05EA0103958905EA010413B10CB173
:10284000012000E0002030BD1AB183890B43838151
:1028500002E083898B4383817047000070B50024B8
:1028600000220023058C4FF6FE7635400584028C4D
:102870008388048B4FF68F752C40B51E2C400D8835
:102880002C43751E2A400D892A434D882A43144D36
:10289000A8420BD0134DA84208D0134DA84205D032
:1028A000124DA84202D0124DA84213D14FF6F7752F
:1028B0002A404D892A434FF6FB752A408D882A43CA
:1028C0004FF6FF652B404FF6FF552B408D892B436C
:1028D000CD892B4383800483CD888586028470BD97
:1028E000002C014000340140004001400044014000
:1028F000004801400A460021018B4FF6F77319404A
:10290000114301837047000070B5002400220023AA
:10291000058C4FF6EF7635400584028C8388048B56
:1029200048F6FF752C404FF6FF452C400D884FF6BA
:10293000FF7606EA05252C434FF6DF752A400D8900
:1029400006EA05152A434D8806EA05152A43154D62
:10295000A84202D0144DA8421DD14FF67F752A40DF
:102960004D894FF6FF7606EA05152A434FF6BF75E7
:102970002A408D8806EA05152A434FF6FF352B407D
:102980004FF2FF752B408D8906EA85052B43CD89D3
:1029900006EA85052B4383800483CD88058702845E
:1029A00070BD0000002C0140003401400A460021A7
:1029B000018B4FF2FF7319404FF6FF7303EA0223B6
:1029C0001943018370478186704701877047000073
:1029D000002202881D4B98420ED01D4B98420BD00E
:1029E000B0F1804F08D01B4B984205D01A4B98424B
:1029F00002D01A4B984204D14FF68F731A404B887D
:102A00001A43174B984207D0164B984204D04FF602
:102A1000FF431A40CB881A4302808B8883850B883A
:102A200003850A4B98420BD0094B984208D00E4BB5
:102A3000984205D00D4B984202D00D4B984201D1DF
:102A40000B7A03860123838270470000002C01402B
:102A5000003401400004004000080040000C004029
:102A600000100040001400400040014000440140BC
:102A7000004801402DE9F04186B00024BEE0B24894
:102A800000EB04104268B04800EB04100168AFA0EE
:102A9000FDF7D4FBAC4800EB04104268AA4800EBF9
:102AA00004100168B0A0FDF7C9FB642000F02AFD06
:102AB0008CE0B448006801F095F805460E46B2482F
:102AC000006801F08FF802AA63C29F4800EB04106F
:102AD00040689D4901EB04110968CDE90010AB483D
:102AE0000368AB48611C0268AAA0FDF7A7FB9648E3
:102AF00000EB04100068A6490968081A002807DDE1
:102B0000B449B548006801F099F89F4908600EE0A3
:102B10008D4800EB041000689D490968081A06D525
:102B2000AC49AD48006801F02DFB97490860954815
:102B3000006801F057F805460E469348006801F01A
:102B400051F802AA63C2804800EB041040687E4935
:102B500001EB04110968CDE900108C4803688C482A
:102B6000611C02688BA0FDF769FB774800EB04103D
:102B7000406886490968081A00280EDD97480068F1
:102B800001F030F805460022954B00F045FE07465F
:102B900000F010FE7B49086015E06B4800EB041064
:102BA00040687A490968081A0DD58C48006801F018
:102BB00019F8054600228A4B00F02AFF074600F06C
:102BC000F9FD704908600A2000F09CFC5E4901EBA9
:102BD000041109686E4A1268501A00F053FD022869
:102BE000BFF667AF584901EB04114968674A12689C
:102BF000501A00F047FD0228F2DA641C082CFFF698
:102C00003EAF8AE05F48006800F0ECFF05460E46E4
:102C10005D48006800F0E6FF02AA63C24A484068C7
:102C200049490968CDE90010584803685848611CB3
:102C3000026858A0FDF702FB434800685449096840
:102C4000081A00280EDD6448006800F0CBFF054636
:102C50000022634B00F0E0FD074600F0ABFD4A495F
:102C6000086013E03848006849490968081A0DD51A
:102C70005948006800F0B6FF05460022584B00F0A6
:102C8000C7FE074600F096FD3F4908603D480068D2
:102C900000F0A8FF05460E463B48006800F0A2FF82
:102CA00002AA63C22848406827490968CDE9001094
:102CB000364803683648611C026836A0FDF7BEFA44
:102CC0002148406831490968081A00280EDD434848
:102CD000006800F087FF05460022414B00F09CFD94
:102CE000074600F067FD2749086013E01648406872
:102CF00026490968081A0DD53848006800F072FFA7
:102D000005460022364B00F083FE074600F052FDD8
:102D10001C4908600A2000F0F5FB0B4909681C4AB1
:102D20001268501A00F0AEFC0228BFF66BAF0649DD
:102D30004968164A1268501A00F0A4FC0228F4DA16
:102D400006B0BDE8F08100003C010020543220476D
:102D50006574204378204379206973203A256409FB
:102D600025640D0A0000000054322047657420419C
:102D700078204179206973203A25640925640D0A79
:102D8000000000005C0000205800002074000020BB
:102D9000700000204D6F7665696E6720546F20507B
:102DA00025642043783A25642043793A2564202D10
:102DB0002D2D2D3E2041783A25642041793A256415
:102DC0002054313A252E31662054323A252E316670
:102DD0000D0A000000004040500000205400002078
:102DE0000000044010B5012000F0B2FC4FF47A70EE
:102DF00000F088FB042000F0ABFC00BFFEF7DEFB18
:102E0000704802687048016870A0FDF717FA7248B0
:102E100002687248016872A0FDF710FA73480268F0
:102E20007348016873A0FDF709FA75480268754890
:102E3000016875A0FDF702FA714800680028DDD02E
:102E4000604802686048016860A0FDF7F7F96248D1
:102E500002686248016862A0FDF7F0F96348026801
:102E60006348016863A0FDF7E9F9654802686548B1
:102E7000016865A0FDF7E2F9032000F069FC4FF45A
:102E80007A7000F03FFB4FF47A7000F03BFB4FF498
:102E90007A7000F037FB4FF47A7000F033FB4FF498
:102EA0007A7000F02FFB4C4803684C480268454894
:102EB000016845480068FEF7A3FC564880685649FB
:102EC00008605448C0685549086000240AE0514A27
:102ED00002EB041251684F4A02EB04121068FEF72D
:102EE000F1FA641C052CF2DB404803684048026894
:102EF0003948016839480068FEF782FC00240AE07E
:102F0000444A02EB04125168424A02EB0412106870
:102F1000FEF7D8FA641C052CF2DB394803683948FF
:102F200002683248016832480068FEF769FC0024F4
:102F30000AE0384A02EB04125168364A02EB0412E6
:102F40001068FEF7BFFA641C052CF2DB1D4803680D
:102F50001D4802682A4801682A480068FEF750FCAC
:102F600000240AE02B4A02EB04125168294A02EBC2
:102F700004121068FEF7A6FA641C052CF2DB284A3E
:102F8000D2F88410D2F88000FFF7C6F9012000F0D3
:102F9000DFFB00200C4908600A4908600F490860FF
:102FA0000D49086012490860104908601549086019
:102FB000134908604FF47A7000F0A4FA032000F07F
:102FC000C7FB10BD080000200400002050313A2546
:102FD000642C25640D0A0000100000200C00002065
:102FE00050323A25642C25640D0A00001800002098
:102FF0001400002050333A25642C25640D0A00008B
:10300000200000201C00002050343A25642C256448
:103010000D0A0000CC010020580000205C000020B8
:103020003C01002010B540F225511D4800F0A1F8E8
:1030300010B31B4800F058F9C4B21A48008800F4D5
:103040000040C8B91748008800F4804060B10A2CDD
:1030500003D000201349088020E01248008840F483
:1030600000401049088019E00D2C06D10D48008859
:1030700040F480400B49088010E00A480088C0F303
:103080000D0009490C5407480088401C0549088078
:1030900008460088C72801DD0020088010BD000018
:1030A00000380140C40000204D02002010B540F25D
:1030B00025511C4800F05DF8002832D01948001D49
:1030C0000088C2B21848007848B9184800782C28FF
:1030D00005D10120144908700020154908701248D4
:1030E0000078012814D11348114909784254104836
:1030F0000078401C0E49087008460078092807D15E
:103100000020094908700A49087001200A4908602E
:10311000FEF754FA05480078084908700348027021
:1031200000BF10BD00480040C9000020C7000020BB
:10313000C60000204402002024000020C800002017
:1031400021B1828942F40052828104E082894DF6E5
:10315000FF731A408281704702460020B1F5007F5C
:1031600000D100BF13880B400BB1012000E000200C
:10317000704770B50246002400230025002040F669
:103180006A16B14200D100BFC1F3421501F01F031E
:10319000012606FA03F3012D02D19689334006E099
:1031A000022D02D1168A334001E0968A33400C1278
:1031B000012606FA04F41688344013B10CB101203C
:1031C00000E0002070BDF0B5034600240026002575
:1031D000002040F66A17B94200D100BF1846C1F37B
:1031E000421401F01F06012707FA06F5012C01D150
:1031F0000C3004E0022C01D1103000E014301AB180
:1032000007682F43076002E00768AF430760F0BD1F
:103210002DE9F04786B005460E460024A24600BFC1
:10322000A1460027B08900B100BF2F462C8A4CF67A
:10323000FF700440F08804432C82AC894EF6F310F2
:103240000440B08831890843718908430443AC8144
:10325000AC8A4FF6FF400440B0890443AC8201A819
:10326000FEF7F0FF1F48874202D1DDF810A001E011
:10327000DDF80CA0A88900F4004040B10AEBCA00B8
:1032800000EB0A1031684900B0FBF1F807E00AEBE7
:10329000CA0000EB0A1031688900B0FBF1F8642025
:1032A000B8FBF0F004012009642101FB1089A88912
:1032B00000F4004040B1322000EBC900B0FBF1F057
:1032C00000F00700044308E0322000EB09106421FD
:1032D000B0FBF1F000F00F0004432C8106B0BDE814
:1032E000F08700000038014001468888C0F30800DC
:1032F0007047C1F308028280704700BFFEE70000FC
:103300000D480E49086000200D4908600D480E491F
:1033100008600E480E4908604FF07E500D49086065
:103320000D4908600D480E4908600E4908600E49B5
:1033300008600E49086070470000C0403C00002053
:103340004000002000004040440000209A99193FAE
:1033500030000020340000203800002000803B4472
:103360005000002058000020540000205C00002085
:1033700070B54FF496644FF4AF75284600F0AEFD7B
:1033800006461C480168304600F0C0FE04D22846BC
:1033900000F0A4FD17490860204600F09FFD064696
:1033A00014480168304600F0B1FD04D2204600F018
:1033B00095FD10490860284600F090FD06460E482D
:1033C0000168304600F0A2FE04D2284600F086FDD7
:1033D00009490860204600F081FD0646064801685C
:1033E000304600F093FD04D2204600F077FD0249FC
:1033F000086070BD580000205C00002070B50224F9
:10340000251F284600F06AFD06461C480168304624
:1034100000F07CFE04D2284600F060FD17490860E9
:10342000204600F05BFD064614480168304600F077
:103430006DFD04D2204600F051FD10490860284679
:1034400000F04CFD06460E480168304600F05EFE76
:1034500004D2284600F042FD09490860204600F0E9
:103460003DFD064606480168304600F04FFD04D297
:10347000204600F033FD0249086070BD480000207E
:103480004C000020490050EAC12018BF04204A0D1A
:1034900018BF40F0010040F2FF72B2EB515F08BF6D
:1034A00040F00200012808BF0520704730380A2884
:1034B00001D2012070470020704700BF7047000014
:1034C00010B56FF00400FFF781F80A4800680A4958
:1034D000B0FBF1F0094908700846007800EB4001A4
:1034E000C1EBC0104FF6FF7101EAC000044908802B
:1034F00010BD00009400002000127A00BC000020E3
:10350000BE0000200146114A12884A434FF0E023D2
:103510005A6100229A611A46126942F001021A6148
:1035200000BF4FF0E022106900F001021AB100F470
:103530008032002AF5D04FF0E022126922F0010219
:103540004FF0E0231A6100229A617047BE0000200C
:1035500000BF054A128802F04002002AF9D0C2B228
:10356000014B1B1D1A80704700380140FFF7A8FF70
:103570004FF4A060FEF786FD4FF4E13000F08AF8CA
:103580004FF4E130FEF7EAFCFEF7BCFAFEF732FA40
:10359000FFF7B6FE41F61F416320FFF7FBF88F21CE
:1035A00042F20F70FFF76EF82D482E4908602E4941
:1035B0000860032000F0CCF84FF47A70FFF7A2FF08
:1035C000032000F0C5F84FF47A70FFF79BFF03204B
:1035D00000F0BEF84FF47A70FFF794FFFEF74AF957
:1035E0003DE0FEF7C9F8FEF7C7FAFEF739FA1F48C3
:1035F00002681F4801681FA0FCF720FE6420FFF747
:1036000081FF1E48006820B101280DD0022825D175
:1036100017E01B4AD2F88410D2F88000FEF77CFE37
:1036200063201649086019E0FFF724FA144AD2F81B
:103630008410D2F88000FEF76FFE63200F49086007
:103640000CE0FFF7CFFB0E4AD2F88410D2F88000CE
:10365000FEF762FE63200949086000BF00BFC0E7B3
:1036600000803B44580000205C00002074000020D3
:103670007000002025640925640D0A0088000020E0
:103680003C0100200146002901DA484200E00846DA
:103690007047000010B586B00446012144F20400D2
:1036A000FEF7C0FD4FF40070ADF8140003208DF854
:1036B000160018208DF8170005A91C48FDF7CFFF4C
:1036C0004FF48060ADF8140004208DF8170005A9B0
:1036D0001648FDF7C4FF25208DF8000003208DF863
:1036E00001008DF8020001208DF803006846FEF706
:1036F00091FC01940020ADF80800ADF80A00ADF887
:103700000C00ADF810000C20ADF80E0001A908481F
:10371000FFF77EFD012240F225510548FFF753FDDA
:1037200001210348FFF70CFD06B010BD0008014061
:10373000003801400549088000BF0449091F098875
:1037400001F040010029F8D0704700000448004013
:1037500000B502461046FFF7EDFF00BD10B5002989
:103760000AD00878002807D005487844FDF7A6FA63
:10377000002801D0002010BD0248784410BD000090
:10378000BE0B0000B60B000010B500290AD0087867
:10379000002807D005487844FDF790FA002801D0AA
:1037A000002010BD0248784410BD0000AE0B0000A0
:1037B000A60B000021F00042A2F16052B2F5801F7A
:1037C00001F0004328BFD2F17F6C0BD95FEA001CE7
:1037D00043EAC20242EB507018BF704728BF20F086
:1037E00001007047B2F5801FBCBF184670474FEA12
:1037F000410C1CF5001F02D2084600F082BC70B5D7
:1038000000F0B2F800000089FFF7F6BF4FF000406B
:10381000A0F580007047000010B591EA030F48BF83
:1038200083F0004300F1FC80841A71EB030C05D295
:10383000121943EB0C03001B61EB0C01DFF824E1D0
:103840004FEA1154A4EB135C1EEA430F18BF9EEA23
:10385000445F73D023EA0E03DCF1200E21EA045109
:1038600043F4801332D322FA0CFE10EB0E0023FA3D
:103870000CFE41EB0E01CCF1200E03FA0EFE10EB14
:103880000E0051F10001B1F5801FCCF1200E32D2B3
:1038900001EB045112FA0EF2BDE8104058BF704718
:1038A000401C38BF5FEA420218BF7047002814BFAF
:1038B00020F0010041F100014FEA410313F5001F20
:1038C00038BF7047A1F1C04100F09CB8012A43EB1A
:1038D0000302ACF1200CDCF11F0E32BF4FF0000EE2
:1038E00023FA0CF310EB030041EB0451B4EB115F2E
:1038F000D0D0A1EB045101F5801149085FEA3000F6
:1039000001EB04510ED350F1000038BF12FA0EFE45
:1039100008D1BDE81040C9E7401C38BF5FEA420249
:10392000CAD1C3E7BDE810404FEA410313F5001FB9
:1039300038BF7047A1F1C04100F064B89EEA445F0F
:1039400008D011EA5E0FBDE8104004BF01F000414D
:1039500000207047BDE8104070B500F005F800BFCA
:1039600064FBBE3E0000E0FF0EF1020E2EF0030EDF
:103970005EF8046B364205D4012A43EB030515F5C6
:10398000001F12D8012841EB010C1CF5001F0CD8B8
:103990000ED14FEAD17C15F5001F0CEB4C0C0CF14D
:1039A000020C08BF4CEBD37C04E04FF0080C01E0A4
:1039B0004FEAD37C0CEB4C0526FA05F606F0070619
:1039C000B6F1040C06D20EEB860CBDE870404CF04C
:1039D000010C6047DFE80CF0090B02024FF00041D8
:1039E0004FF00000A1F5002170BD194610460128D6
:1039F00051EB010418BFD4F5001484BF002001F07E
:103A0000004170BD0808A0F500114FEA3101704770
:103A100010B591EA030F48BF83F000433FF504AFB0
:103A2000841A71EB030C07D212198CF0004C43EB93
:103A30000C03001B61EB0C01DFF8A4E14FEA115409
:103A4000A4EB135C1EEA430F18BF9EEA445F00F02C
:103A5000B08023EA6E03524221EA0451C3EB6E03A5
:103A600038BF5B1EDCF1200E25D322FA0CFE10EBD2
:103A70000E0043FA0CFE41EB0E01CCF1200E03FACE
:103A80000EFE10EB0E0051F10001CCF1200E29D4F6
:103A900012FA0EF201EB0451BDE8104058BF704716
:103AA000401C1CBFB2F1004F704700280CBF491CDE
:103AB00020F00100704712EB020E43EB030218BF27
:103AC0004FF0010E4EEA4202ACF1200CDCF11E0E6A
:103AD00054D943FA0CFE10EB0E0051F1FF31CCF13A
:103AE0001E0ED5D50EF1010E12FA0EFE404141EB2D
:103AF000010101EB445C5FEA5C5C10D910EBDE7005
:103B000001EB045138BFBEF1004FBDE8104018BFB3
:103B1000704700280CBF491C20F00100704730D2CC
:103B20004FEAD42C11F5001124F400641BD0B1FA33
:103B300081F20B3AA41AA41ED2F12003914030FA6C
:103B400003F31943904001EBCC71002C01EB0451BD
:103B5000BDE81040A8BF704701F1C0414FF0000020
:103B600001F000417047B0FA80F310FA03F100D180
:103B700010BDE41A173C4805C90AE4E701EB0451FB
:103B800010BD491001EB0451BDE810404FEA300070
:103B900002E04FF0000170474A0008BF0042F8D031
:103BA000B2F5001F28BF704701F000414FF0000040
:103BB00070479EEA445F07D011EA5E0FBDE81040EF
:103BC00004BF002100207047BDE8104070B5FFF72A
:103BD000CBFE00BF40DFF63E83F000411046704749
:103BE0000000E0FF43004FEAD30C4FEA3C0C434097
:103BF0001FBF40070CF1605113F0FE4F70471CF0DF
:103C0000006F03D100200CF0004170470CF000431E
:103C100043EA507010B540EACC0000F02CFA00BF27
:103C2000000000924FEA0001FFF7ECBE4FF00041A8
:103C30004FF00000A1F500217047000090EA010F4D
:103C400048BF81F0004100F1A482421A3CBF801AB3
:103C500089184FEAD0524FF07F4C1CEA410FA2EB7B
:103C6000D15318BF9CEA026F00F03B804FF0004C2C
:103C70004CEA00204CEA012121FA03FC10EB0C0C69
:103C80001ED202F1FF325FEA1C2040EBC25038BF67
:103C900070471CF07F0F4FEA400C18BFBCF17F4FFC
:103CA00038BF7047C3F12003994008BF20F00100DE
:103CB000BCF17F4F38BF7047A0F1C04000F021BA7F
:103CC0004FEA3C00000A40EBC25028BF1CF0FF0F37
:103CD0004FEA400CE6D018BFBCF17F4F38BF7047A9
:103CE000EAE79CEA026F05D010EA5C0F08BF00F01B
:103CF0000040704710B500F0BEF900BF64FBBE3E47
:103D0000401058BFC0F14040491058BFC1F1404178
:103D10008142EFF3008070474FF47F0C1CEAD01211
:103D20001EBF1CEAD11392EA0C0F93EA0C0F00F0AD
:103D3000858090EA010F48BF42F4807240F4000C85
:103D400041F400002CF07F4120F07F4000B581421B
:103D5000A2EB03020FF2081CACEB504EC0F10000C6
:103D60009EF800E04FEA4E0E00FB0EFC38BF490003
:103D70004FEA2C1C02F5FA020CFB0EF34FEACE1EA2
:103D80004FEA112C4FEAC1210EEB635E42EB224257
:103D90000EFB0CFC4FEA1C5300FB03114FEA112CE5
:103DA0004FEA01310EFB0CFC4FEADC4C00FB0C111E
:103DB000C14228BF09184CEB03335DF804EB10EB4C
:103DC000410143EBC250B2F57C0F38BF704729D593
:103DD00012F0F00F1CBF00F1C04000F0004070472F
:103DE000008182838485868788898B8C8D8E8F91D4
:103DF0009293959697999A9C9D9FA0A2A3A5A7A8F8
:103E0000AAACAEB0B2B3B5B7B9BCBEC0C2C5C7C923
:103E1000CCCED1D4D7D9DCDFE2E6E9ECF0F3F7FA87
:103E2000FE0000004FEA400C0CF1807CBCF17E4F9C
:103E300028BF7047B0F1C04000F063B990EA010FAD
:103E40000CEAD11348BF42F48072624538BF634523
:103E500007D213F47F0F16D080EA010000F0004073
:103E6000704710B500F007F9097EFC3E00F005B878
:103E700080EA010000F00040704780EA010000F095
:103E8000004000F03EB912F47F0F04BF02487047B3
:103E900080EA010000F035B90000C07FC10DD1F10A
:103EA0009E0206DB4FEA002343F0004323FA02F0B0
:103EB0007047004207D54FEA4001B1F1FE4F02D2F0
:103EC0004FF00000704710B500F0D5F849922480FB
:103ED000002070476FEA20007047000010F000419A
:103EE00048BF4042B0FA80F310FA03F2C3F19D03D9
:103EF0000BD051EAC35101EB1220530638BF704773
:103F000000F1010008BF20F00100704750EA010CE9
:103F100000F113801CF5000F58BFBCF5000F01D451
:103F20008842704707D710F5000F58BF11F5000FF2
:103F300015D488427047894270471CF5000F04D59C
:103F4000BCF5000FF7D5814270474FF0807C1CEB29
:103F5000400F38BF1CEB410F01D28142704710B5B2
:103F600000F089F8922449004FF000504FF0805142
:103F7000FFF7C6BE4FF47F0C1CEAD0121EBF1CEA2E
:103F8000D11392EA0C0F93EA0C0F00F0478090EAED
:103F9000010F48BF42F480724FF0004C4CEA002001
:103FA0004CEA012102EB0302A0FB0113A2F500027F
:103FB000002918BF43F001035B0028BF4FEA330319
:103FC00042EB22425FEA132C4CEBC2502EBFBCEBFB
:103FD000436FB2F57C0F70474FEA036CBCF1004FA2
:103FE00008BF20F00100B2F57C0F38BF70470BD539
:103FF00082F0FF0212F5803FC8BF704700F1C04059
:10400000D8BF00F00040704700F5000C5FEA4C0C90
:1040100048BF7047B0F1C04000F073B890EA010F9C
:104020000CEAD11348BF42F48072624538BF634541
:1040300004D280EA010000F00040704710B500F0A3
:104040001AF800BF8900013E00F007B800F009B877
:104050005FEA410C5FEA1C6C08D080EA010000F0C6
:1040600050B85FEA400C5FEA1C6CF6D14FF000409C
:10407000A0F5800070470EF1020E2EF0030E5EF8E0
:10408000044B244204D44FEA4102B2F17F4F11D8CD
:104090004FEA4003B3F17F4F0CD80ED14FEAD07CEA
:1040A000B2F17F4F0CEB4C0C0CF1020C08BF4CEB47
:1040B000D17C04E04FF0080C01E04FEAD17C0CEB1E
:1040C0004C0324FA03F404F00704B4F1040C06D200
:1040D0000EEB840CBDE810404CF0010C6047DFE8AB
:1040E0000CF0070802024FF00040A0F5800010BD60
:1040F0000846420018BFD2F1807288BF00F000402D
:1041000010BDFF2141EAD050C005704751EA000CB4
:1041100000F113801CF5000F58BFBCF5000F01D44F
:104120008142704707D711F5000F58BF10F5000FF7
:1041300015D481427047894270471CF5000F04D5A1
:10414000BCF5000FF7D5884270474FF0807C1CEB20
:10415000410F38BF1CEB400F01D28842704780EA04
:10416000010081EA000180EA0100FFF7F8BE80F05B
:10417000004090EA010F7FF568AD81F0004100F04A
:1041800008B8000090EA010F48BF81F000413FF5F8
:104190005CAD421A04D882F00042A0EB0200114448
:1041A0004FEAD0524FF07F4C1CEA410FA2EBD153A3
:1041B00018BF9CEA026F4AD04FF0004C4CEA002036
:1041C0004CEA012121FA03FCB0EB0C0C0FD412F0E5
:1041D000FE0F36D05FEA4C001DD5001240EBC250F6
:1041E00038BF70471CF03F0F18BF70470BE0A2F1BB
:1041F00001025FEA1C2040EBC25038BF70471CF040
:104200007F0F18BF7047C3F12003994014BF401EB1
:1042100020F00100704780084FEA122308BF704762
:10422000B0FA80FCA2EB0C02CCF1280C60FA0CF086
:1042300093EA122F04BF00EBC25070474FEAC370DD
:104240007047130A5FEADC1008BF7047F6E79CEA84
:10425000026F04D010EA5C0F08BF0020704710B551
:10426000FFF709FF40DFF63E81F000407047FCF7A2
:10427000F9B9000002400000000000A000000000AA
:1042800005400000000000C8000000000C400000D5
:104290000000409C00000000194000000020BCBE4F
:1042A0000000000034400000BFC91B8E0000000465
:1042B000B5400000504BCFD06607E2CF01000000B0
:1042C0006C4100003E8251AADFEEA73401000000DD
:1042D000D9420000DCB5A0E23A301F97FFFFFFFF94
:1042E000B4450000FD25A0C8E9A3C14FFFFFFFFFB3
:1042F000FF3F00000000008000000000FF3F0000C2
:10430000000000800000000054440008000000206D
:10431000EC0000006C01000840450008EC000020A3
:104320008C080000880100081C0000004300000009
:10433000F8FFFFFF0C0000000E0000000F0000005F
:104340002E0000001001000043000000F8FFFFFFF6
:104350000040404040404040404041414141414098
:10436000404040404040404040404040404040404D
:1043700040050202020202020202020202020202DC
:1043800002202020202020202020200202020202E1
:104390000202909090909090101010101010101039
:1043A0001010101010101010101010100202020245
:1043B0000202888888888888080808080808080889
:1043C0000808080808080808080808080202020285
:1043D000400000000000000000000000000000009D
:1043E00000000000000000000000000000000000CD
:1043F00000000000000000000000000000000000BD
:1044000000000000000000000000000000000000AC
:10441000000000000000000000000000000000009C
:10442000000000000000000000000000000000008C
:10443000000000000000000000000000000000007C
:10444000000000000000000000000000000000006C
:10445000000000000000000000000000000000005C
:10446000000000000000000000000000000000004C
:10447000000000000000000000000000000000003C
:10448000000000000000000000000000000000002C
:10449000000000000000000000000000000000001C
:1044A000000000000000000000000000000000000C
:1044B000000000000000FA4300007A440000FA43C4
:1044C00000007A440000000000000000000000002E
:1044D0000000000000000000000000006300000079
:1044E000000000000000000000A24A0400000000DC
:1044F0000000000001020304060708090000000094
:104500000102030401020304060708090204060865
:10451000000000000000000000000000000000009B
:10452000000000000000000000000000000000008B
:10453000000000000000000000000000000000007B
:0400000508000131BD
:00000001FF
